{
  "address": "0x7c760057A892aCb8f953775bc3F2aCABa117FF4a",
  "abi": [
    {
      "inputs": [
        {
          "internalType": "contract IMasterChef",
          "name": "chef_",
          "type": "address"
        },
        {
          "internalType": "address",
          "name": "maker_",
          "type": "address"
        },
        {
          "internalType": "contract IERC20",
          "name": "pichi_",
          "type": "address"
        },
        {
          "internalType": "contract IERC20",
          "name": "WETH_",
          "type": "address"
        },
        {
          "internalType": "contract IERC20",
          "name": "WBTC_",
          "type": "address"
        },
        {
          "internalType": "contract IFactory",
          "name": "polyCityDexFactory_",
          "type": "address"
        },
        {
          "internalType": "contract IFactory",
          "name": "uniV2Factory_",
          "type": "address"
        },
        {
          "internalType": "contract IERC20",
          "name": "hall_",
          "type": "address"
        },
        {
          "internalType": "contract IAntiqueBox",
          "name": "antiqueBox_",
          "type": "address"
        }
      ],
      "stateMutability": "nonpayable",
      "type": "constructor"
    },
    {
      "inputs": [],
      "name": "WBTC",
      "outputs": [
        {
          "internalType": "contract IERC20",
          "name": "",
          "type": "address"
        }
      ],
      "stateMutability": "view",
      "type": "function"
    },
    {
      "inputs": [],
      "name": "WETH",
      "outputs": [
        {
          "internalType": "contract IERC20",
          "name": "",
          "type": "address"
        }
      ],
      "stateMutability": "view",
      "type": "function"
    },
    {
      "inputs": [],
      "name": "antiqueBox",
      "outputs": [
        {
          "internalType": "contract IAntiqueBox",
          "name": "",
          "type": "address"
        }
      ],
      "stateMutability": "view",
      "type": "function"
    },
    {
      "inputs": [],
      "name": "chef",
      "outputs": [
        {
          "internalType": "contract IMasterChef",
          "name": "",
          "type": "address"
        }
      ],
      "stateMutability": "view",
      "type": "function"
    },
    {
      "inputs": [
        {
          "internalType": "address",
          "name": "who",
          "type": "address"
        },
        {
          "internalType": "address[]",
          "name": "addresses",
          "type": "address[]"
        }
      ],
      "name": "findBalances",
      "outputs": [
        {
          "components": [
            {
              "internalType": "contract IERC20",
              "name": "token",
              "type": "address"
            },
            {
              "internalType": "uint256",
              "name": "balance",
              "type": "uint256"
            },
            {
              "internalType": "uint256",
              "name": "antiqueBalance",
              "type": "uint256"
            }
          ],
          "internalType": "struct BoringHelperV1.Balance[]",
          "name": "",
          "type": "tuple[]"
        }
      ],
      "stateMutability": "view",
      "type": "function"
    },
    {
      "inputs": [
        {
          "internalType": "address",
          "name": "who",
          "type": "address"
        },
        {
          "internalType": "uint256[]",
          "name": "pids",
          "type": "uint256[]"
        }
      ],
      "name": "findPools",
      "outputs": [
        {
          "components": [
            {
              "internalType": "uint256",
              "name": "pid",
              "type": "uint256"
            },
            {
              "internalType": "uint256",
              "name": "balance",
              "type": "uint256"
            }
          ],
          "internalType": "struct BoringHelperV1.PoolFound[]",
          "name": "",
          "type": "tuple[]"
        }
      ],
      "stateMutability": "view",
      "type": "function"
    },
    {
      "inputs": [
        {
          "internalType": "address",
          "name": "who",
          "type": "address"
        },
        {
          "internalType": "contract IERC20[]",
          "name": "addresses",
          "type": "address[]"
        }
      ],
      "name": "getBalances",
      "outputs": [
        {
          "components": [
            {
              "internalType": "contract IERC20",
              "name": "token",
              "type": "address"
            },
            {
              "internalType": "uint256",
              "name": "totalSupply",
              "type": "uint256"
            },
            {
              "internalType": "uint256",
              "name": "balance",
              "type": "uint256"
            },
            {
              "internalType": "uint256",
              "name": "antiqueBalance",
              "type": "uint256"
            },
            {
              "internalType": "uint256",
              "name": "antiqueAllowance",
              "type": "uint256"
            },
            {
              "internalType": "uint256",
              "name": "nonce",
              "type": "uint256"
            },
            {
              "internalType": "uint128",
              "name": "antiqueAmount",
              "type": "uint128"
            },
            {
              "internalType": "uint128",
              "name": "antiqueShare",
              "type": "uint128"
            },
            {
              "internalType": "uint256",
              "name": "rate",
              "type": "uint256"
            }
          ],
          "internalType": "struct BoringHelperV1.BalanceFull[]",
          "name": "",
          "type": "tuple[]"
        }
      ],
      "stateMutability": "view",
      "type": "function"
    },
    {
      "inputs": [
        {
          "internalType": "contract IERC20",
          "name": "token",
          "type": "address"
        }
      ],
      "name": "getETHRate",
      "outputs": [
        {
          "internalType": "uint256",
          "name": "",
          "type": "uint256"
        }
      ],
      "stateMutability": "view",
      "type": "function"
    },
    {
      "inputs": [
        {
          "internalType": "contract IFactory",
          "name": "factory",
          "type": "address"
        },
        {
          "internalType": "uint256",
          "name": "fromID",
          "type": "uint256"
        },
        {
          "internalType": "uint256",
          "name": "toID",
          "type": "uint256"
        }
      ],
      "name": "getPairs",
      "outputs": [
        {
          "components": [
            {
              "internalType": "contract IPair",
              "name": "token",
              "type": "address"
            },
            {
              "internalType": "contract IERC20",
              "name": "token0",
              "type": "address"
            },
            {
              "internalType": "contract IERC20",
              "name": "token1",
              "type": "address"
            },
            {
              "internalType": "uint256",
              "name": "totalSupply",
              "type": "uint256"
            }
          ],
          "internalType": "struct BoringHelperV1.PairBase[]",
          "name": "",
          "type": "tuple[]"
        }
      ],
      "stateMutability": "view",
      "type": "function"
    },
    {
      "inputs": [
        {
          "internalType": "uint256[]",
          "name": "pids",
          "type": "uint256[]"
        }
      ],
      "name": "getPools",
      "outputs": [
        {
          "components": [
            {
              "internalType": "uint256",
              "name": "totalAllocPoint",
              "type": "uint256"
            },
            {
              "internalType": "uint256",
              "name": "poolLength",
              "type": "uint256"
            }
          ],
          "internalType": "struct BoringHelperV1.PoolsInfo",
          "name": "",
          "type": "tuple"
        },
        {
          "components": [
            {
              "internalType": "uint256",
              "name": "pid",
              "type": "uint256"
            },
            {
              "internalType": "contract IPair",
              "name": "lpToken",
              "type": "address"
            },
            {
              "internalType": "uint256",
              "name": "allocPoint",
              "type": "uint256"
            },
            {
              "internalType": "bool",
              "name": "isPair",
              "type": "bool"
            },
            {
              "internalType": "contract IFactory",
              "name": "factory",
              "type": "address"
            },
            {
              "internalType": "contract IERC20",
              "name": "token0",
              "type": "address"
            },
            {
              "internalType": "contract IERC20",
              "name": "token1",
              "type": "address"
            },
            {
              "internalType": "string",
              "name": "name",
              "type": "string"
            },
            {
              "internalType": "string",
              "name": "symbol",
              "type": "string"
            },
            {
              "internalType": "uint8",
              "name": "decimals",
              "type": "uint8"
            }
          ],
          "internalType": "struct BoringHelperV1.PoolInfo[]",
          "name": "",
          "type": "tuple[]"
        }
      ],
      "stateMutability": "view",
      "type": "function"
    },
    {
      "inputs": [
        {
          "internalType": "address[]",
          "name": "addresses",
          "type": "address[]"
        }
      ],
      "name": "getTokenInfo",
      "outputs": [
        {
          "components": [
            {
              "internalType": "contract IERC20",
              "name": "token",
              "type": "address"
            },
            {
              "internalType": "uint256",
              "name": "decimals",
              "type": "uint256"
            },
            {
              "internalType": "string",
              "name": "name",
              "type": "string"
            },
            {
              "internalType": "string",
              "name": "symbol",
              "type": "string"
            },
            {
              "internalType": "bytes32",
              "name": "DOMAIN_SEPARATOR",
              "type": "bytes32"
            }
          ],
          "internalType": "struct BoringHelperV1.TokenInfo[]",
          "name": "",
          "type": "tuple[]"
        }
      ],
      "stateMutability": "view",
      "type": "function"
    },
    {
      "inputs": [
        {
          "internalType": "address",
          "name": "who",
          "type": "address"
        },
        {
          "internalType": "contract IFactory[]",
          "name": "factoryAddresses",
          "type": "address[]"
        },
        {
          "internalType": "contract IERC20",
          "name": "currency",
          "type": "address"
        },
        {
          "internalType": "address[]",
          "name": "masterContracts",
          "type": "address[]"
        }
      ],
      "name": "getUIInfo",
      "outputs": [
        {
          "components": [
            {
              "internalType": "uint256",
              "name": "ethBalance",
              "type": "uint256"
            },
            {
              "internalType": "uint256",
              "name": "pichiBalance",
              "type": "uint256"
            },
            {
              "internalType": "uint256",
              "name": "polyCityHallBalance",
              "type": "uint256"
            },
            {
              "internalType": "uint256",
              "name": "xpichiBalance",
              "type": "uint256"
            },
            {
              "internalType": "uint256",
              "name": "xpichiSupply",
              "type": "uint256"
            },
            {
              "internalType": "uint256",
              "name": "polyCityHallAllowance",
              "type": "uint256"
            },
            {
              "components": [
                {
                  "internalType": "contract IFactory",
                  "name": "factory",
                  "type": "address"
                },
                {
                  "internalType": "uint256",
                  "name": "allPairsLength",
                  "type": "uint256"
                }
              ],
              "internalType": "struct BoringHelperV1.Factory[]",
              "name": "factories",
              "type": "tuple[]"
            },
            {
              "internalType": "uint256",
              "name": "ethRate",
              "type": "uint256"
            },
            {
              "internalType": "uint256",
              "name": "pichiRate",
              "type": "uint256"
            },
            {
              "internalType": "uint256",
              "name": "btcRate",
              "type": "uint256"
            },
            {
              "internalType": "uint256",
              "name": "pendingPichi",
              "type": "uint256"
            },
            {
              "internalType": "uint256",
              "name": "blockTimeStamp",
              "type": "uint256"
            },
            {
              "internalType": "bool[]",
              "name": "masterContractApproved",
              "type": "bool[]"
            }
          ],
          "internalType": "struct BoringHelperV1.UIInfo",
          "name": "",
          "type": "tuple"
        }
      ],
      "stateMutability": "view",
      "type": "function"
    },
    {
      "inputs": [],
      "name": "hall",
      "outputs": [
        {
          "internalType": "contract IERC20",
          "name": "",
          "type": "address"
        }
      ],
      "stateMutability": "view",
      "type": "function"
    },
    {
      "inputs": [],
      "name": "maker",
      "outputs": [
        {
          "internalType": "address",
          "name": "",
          "type": "address"
        }
      ],
      "stateMutability": "view",
      "type": "function"
    },
    {
      "inputs": [],
      "name": "owner",
      "outputs": [
        {
          "internalType": "address",
          "name": "",
          "type": "address"
        }
      ],
      "stateMutability": "view",
      "type": "function"
    },
    {
      "inputs": [],
      "name": "pichi",
      "outputs": [
        {
          "internalType": "contract IERC20",
          "name": "",
          "type": "address"
        }
      ],
      "stateMutability": "view",
      "type": "function"
    },
    {
      "inputs": [
        {
          "internalType": "address",
          "name": "who",
          "type": "address"
        },
        {
          "internalType": "contract IKushoPair[]",
          "name": "pairsIn",
          "type": "address[]"
        }
      ],
      "name": "pollKushoPairs",
      "outputs": [
        {
          "components": [
            {
              "internalType": "contract IERC20",
              "name": "collateral",
              "type": "address"
            },
            {
              "internalType": "contract IERC20",
              "name": "asset",
              "type": "address"
            },
            {
              "internalType": "contract IOracle",
              "name": "oracle",
              "type": "address"
            },
            {
              "internalType": "bytes",
              "name": "oracleData",
              "type": "bytes"
            },
            {
              "internalType": "uint256",
              "name": "totalCollateralShare",
              "type": "uint256"
            },
            {
              "internalType": "uint256",
              "name": "userCollateralShare",
              "type": "uint256"
            },
            {
              "components": [
                {
                  "internalType": "uint128",
                  "name": "elastic",
                  "type": "uint128"
                },
                {
                  "internalType": "uint128",
                  "name": "base",
                  "type": "uint128"
                }
              ],
              "internalType": "struct Rebase",
              "name": "totalAsset",
              "type": "tuple"
            },
            {
              "internalType": "uint256",
              "name": "userAssetFraction",
              "type": "uint256"
            },
            {
              "components": [
                {
                  "internalType": "uint128",
                  "name": "elastic",
                  "type": "uint128"
                },
                {
                  "internalType": "uint128",
                  "name": "base",
                  "type": "uint128"
                }
              ],
              "internalType": "struct Rebase",
              "name": "totalBorrow",
              "type": "tuple"
            },
            {
              "internalType": "uint256",
              "name": "userBorrowPart",
              "type": "uint256"
            },
            {
              "internalType": "uint256",
              "name": "currentExchangeRate",
              "type": "uint256"
            },
            {
              "internalType": "uint256",
              "name": "spotExchangeRate",
              "type": "uint256"
            },
            {
              "internalType": "uint256",
              "name": "oracleExchangeRate",
              "type": "uint256"
            },
            {
              "components": [
                {
                  "internalType": "uint64",
                  "name": "interestPerSecond",
                  "type": "uint64"
                },
                {
                  "internalType": "uint64",
                  "name": "lastAccrued",
                  "type": "uint64"
                },
                {
                  "internalType": "uint128",
                  "name": "feesEarnedFraction",
                  "type": "uint128"
                }
              ],
              "internalType": "struct AccrueInfo",
              "name": "accrueInfo",
              "type": "tuple"
            }
          ],
          "internalType": "struct BoringHelperV1.KushoPairPoll[]",
          "name": "",
          "type": "tuple[]"
        }
      ],
      "stateMutability": "view",
      "type": "function"
    },
    {
      "inputs": [
        {
          "internalType": "address",
          "name": "who",
          "type": "address"
        },
        {
          "internalType": "contract IPair[]",
          "name": "addresses",
          "type": "address[]"
        }
      ],
      "name": "pollPairs",
      "outputs": [
        {
          "components": [
            {
              "internalType": "contract IPair",
              "name": "token",
              "type": "address"
            },
            {
              "internalType": "uint256",
              "name": "reserve0",
              "type": "uint256"
            },
            {
              "internalType": "uint256",
              "name": "reserve1",
              "type": "uint256"
            },
            {
              "internalType": "uint256",
              "name": "totalSupply",
              "type": "uint256"
            },
            {
              "internalType": "uint256",
              "name": "balance",
              "type": "uint256"
            }
          ],
          "internalType": "struct BoringHelperV1.PairPoll[]",
          "name": "",
          "type": "tuple[]"
        }
      ],
      "stateMutability": "view",
      "type": "function"
    },
    {
      "inputs": [
        {
          "internalType": "address",
          "name": "who",
          "type": "address"
        },
        {
          "internalType": "uint256[]",
          "name": "pids",
          "type": "uint256[]"
        }
      ],
      "name": "pollPools",
      "outputs": [
        {
          "components": [
            {
              "internalType": "uint256",
              "name": "pid",
              "type": "uint256"
            },
            {
              "internalType": "uint256",
              "name": "balance",
              "type": "uint256"
            },
            {
              "internalType": "uint256",
              "name": "totalSupply",
              "type": "uint256"
            },
            {
              "internalType": "uint256",
              "name": "lpBalance",
              "type": "uint256"
            },
            {
              "internalType": "uint256",
              "name": "lpTotalSupply",
              "type": "uint256"
            },
            {
              "internalType": "uint256",
              "name": "lpAllowance",
              "type": "uint256"
            },
            {
              "internalType": "uint256",
              "name": "reserve0",
              "type": "uint256"
            },
            {
              "internalType": "uint256",
              "name": "reserve1",
              "type": "uint256"
            },
            {
              "internalType": "uint256",
              "name": "rewardDebt",
              "type": "uint256"
            },
            {
              "internalType": "uint256",
              "name": "pending",
              "type": "uint256"
            }
          ],
          "internalType": "struct BoringHelperV1.UserPoolInfo[]",
          "name": "",
          "type": "tuple[]"
        }
      ],
      "stateMutability": "view",
      "type": "function"
    },
    {
      "inputs": [],
      "name": "polyCityDexFactory",
      "outputs": [
        {
          "internalType": "contract IFactory",
          "name": "",
          "type": "address"
        }
      ],
      "stateMutability": "view",
      "type": "function"
    },
    {
      "inputs": [
        {
          "internalType": "contract IMasterChef",
          "name": "chef_",
          "type": "address"
        },
        {
          "internalType": "address",
          "name": "maker_",
          "type": "address"
        },
        {
          "internalType": "contract IERC20",
          "name": "pichi_",
          "type": "address"
        },
        {
          "internalType": "contract IERC20",
          "name": "WETH_",
          "type": "address"
        },
        {
          "internalType": "contract IERC20",
          "name": "WBTC_",
          "type": "address"
        },
        {
          "internalType": "contract IFactory",
          "name": "polyCityDexFactory_",
          "type": "address"
        },
        {
          "internalType": "contract IFactory",
          "name": "uniV2Factory_",
          "type": "address"
        },
        {
          "internalType": "contract IERC20",
          "name": "hall_",
          "type": "address"
        },
        {
          "internalType": "contract IAntiqueBox",
          "name": "antiqueBox_",
          "type": "address"
        }
      ],
      "name": "setContracts",
      "outputs": [],
      "stateMutability": "nonpayable",
      "type": "function"
    },
    {
      "inputs": [],
      "name": "uniV2Factory",
      "outputs": [
        {
          "internalType": "contract IFactory",
          "name": "",
          "type": "address"
        }
      ],
      "stateMutability": "view",
      "type": "function"
    }
  ],
  "transactionHash": "0x2cdf60b537895311a6d3c6b6e8ad0ff12a21a95193b371bdf3f834397fefb5e0",
  "args": [
    "0x80C7DD17B01855a6D2347444a0FCC36136a314de",
    "0x1b9d177CcdeA3c79B6c8F40761fc8Dc9d0500EAa",
    "0x0769fd68dFb93167989C6f7254cd0D766Fb2841F",
    "0x5B67676a984807a212b1c59eBFc9B3568a474F0a",
    "0x0000000000000000000000000000000000000000",
    "0x0000000000000000000000000000000000000000",
    "0x0000000000000000000000000000000000000000",
    "0x1be211D8DA40BC0ae8719c6663307Bfc987b1d6c",
    "0xACA48e5B2F36d91EcFd9b5cA8E72Da6E8f35C8ff"
  ],
  "solcInputHash": "28bc57bd6e3e95e15b5e6b27dfdba5fc",
  "bytecode": "0x60a06040523480156200001157600080fd5b5060405162005aa438038062005aa48339810160408190526200003491620000dc565b3360601b608052600080546001600160a01b03199081166001600160a01b039b8c1617909155600180548216998b1699909917909855600280548916978a16979097179096556003805488169589169590951790945560048054871693881693909317909255600580548616918716919091179055600680548516918616919091179055600780548416918516919091179055600880549092169216919091179055620001cb565b60008060008060008060008060006101208a8c031215620000fb578485fd5b89516200010881620001b2565b60208b01519099506200011b81620001b2565b60408b01519098506200012e81620001b2565b60608b01519097506200014181620001b2565b60808b01519096506200015481620001b2565b60a08b01519095506200016781620001b2565b60c08b01519094506200017a81620001b2565b60e08b01519093506200018d81620001b2565b6101008b0151909250620001a181620001b2565b809150509295985092959850929598565b6001600160a01b0381168114620001c857600080fd5b50565b60805160601c6158b6620001ee6000398061358652806135aa52506158b66000f3fe608060405234801561001057600080fd5b50600436106101825760003560e01c80635ec54659116100d8578063a88830601161008c578063ad5c464811610066578063ad5c464814610333578063ca0f937c1461033b578063d2ce6e6e1461035b57610182565b8063a8883060146102de578063a959dd80146102f3578063ac6091f81461031357610182565b806378a2ce59116100bd57806378a2ce59146102ae5780637e3e2596146102b65780638da5cb5b146102d657610182565b80635ec546591461026e5780636a385ae91461028e57610182565b8063403ecb3c1161013a5780634ebfb541116101145780634ebfb5411461023e5780634fd635ef1461025e57806350655d8c1461026657610182565b8063403ecb3c1461020e5780634a69ac50146102165780634dede3de1461023657610182565b80632952dde81161016b5780632952dde8146101c55780633009f414146101e65780633da04b871461020657610182565b806315243475146101875780631fc8bc5d146101b0575b600080fd5b61019a610195366004614a26565b610363565b6040516101a791906156a6565b60405180910390f35b6101b8610c09565b6040516101a79190614fe3565b6101d86101d3366004614af8565b610c25565b6040516101a7929190615566565b6101f96101f43660046149ec565b611260565b6040516101a79190615488565b6101b8611926565b6101b8611942565b610229610224366004614af8565b61195e565b6040516101a791906153be565b6101b8611b02565b61025161024c3660046149ec565b611b1e565b6040516101a79190615140565b6101b861278b565b6101b86127a7565b61028161027c366004614976565b6127c3565b6040516101a79190615787565b6102a161029c3660046149ec565b612cf9565b6040516101a7919061502b565b6101b86131d9565b6102c96102c4366004614bf0565b6131f5565b6040516101a79190615295565b6101b8613584565b6102f16102ec366004614c24565b6135a8565b005b6103066103013660046149ec565b6136e2565b6040516101a79190615307565b6103266103213660046149ec565b6139dd565b6040516101a7919061537e565b6101b8613b2b565b61034e610349366004614999565b613b47565b6040516101a791906150de565b6101b8613d80565b61036b6144fc565b6103736144fc565b73ffffffffffffffffffffffffffffffffffffffff88163181528567ffffffffffffffff811180156103a457600080fd5b506040519080825280602002602001820160405280156103de57816020015b6103cb614564565b8152602001906001900390816103c35790505b5060c082015260005b868110156105085760008888838181106103fd57fe5b90506020020160208101906104129190614976565b9050808360c00151838151811061042557fe5b60200260200101516000019073ffffffffffffffffffffffffffffffffffffffff16908173ffffffffffffffffffffffffffffffffffffffff16815250508073ffffffffffffffffffffffffffffffffffffffff1663574f2ba36040518163ffffffff1660e01b815260040160206040518083038186803b1580156104a957600080fd5b505afa1580156104bd573d6000803e3d6000fd5b505050506040513d601f19601f820116820180604052508101906104e19190614b89565b8360c0015183815181106104f157fe5b6020908102919091018101510152506001016103e7565b508267ffffffffffffffff8111801561052057600080fd5b5060405190808252806020026020018201604052801561054a578160200160208202803683370190505b5061018082015260005b838110156106325760085473ffffffffffffffffffffffffffffffffffffffff166391e0eab586868481811061058657fe5b905060200201602081019061059b9190614976565b8b6040518363ffffffff1660e01b81526004016105b9929190615004565b60206040518083038186803b1580156105d157600080fd5b505afa1580156105e5573d6000803e3d6000fd5b505050506040513d601f19601f820116820180604052508101906106099190614b38565b826101800151828151811061061a57fe5b91151560209283029190910190910152600101610554565b5073ffffffffffffffffffffffffffffffffffffffff85161561065e57610658856127c3565b60e08201525b60045473ffffffffffffffffffffffffffffffffffffffff16156106a55760045461069e9073ffffffffffffffffffffffffffffffffffffffff166127c3565b6101208201525b60025473ffffffffffffffffffffffffffffffffffffffff16156108fb576002546106e59073ffffffffffffffffffffffffffffffffffffffff166127c3565b6101008201526002546040517f70a0823100000000000000000000000000000000000000000000000000000000815273ffffffffffffffffffffffffffffffffffffffff909116906370a0823190610741908b90600401614fe3565b60206040518083038186803b15801561075957600080fd5b505afa15801561076d573d6000803e3d6000fd5b505050506040513d601f19601f820116820180604052508101906107919190614b89565b60208201526002546007546040517f70a0823100000000000000000000000000000000000000000000000000000000815273ffffffffffffffffffffffffffffffffffffffff928316926370a08231926107f092911690600401614fe3565b60206040518083038186803b15801561080857600080fd5b505afa15801561081c573d6000803e3d6000fd5b505050506040513d601f19601f820116820180604052508101906108409190614b89565b60408083019190915260025460075491517fdd62ed3e00000000000000000000000000000000000000000000000000000000815273ffffffffffffffffffffffffffffffffffffffff9182169263dd62ed3e926108a5928d9290911690600401615004565b60206040518083038186803b1580156108bd57600080fd5b505afa1580156108d1573d6000803e3d6000fd5b505050506040513d601f19601f820116820180604052508101906108f59190614b89565b60a08201525b60075473ffffffffffffffffffffffffffffffffffffffff1615610a6d576007546040517f70a0823100000000000000000000000000000000000000000000000000000000815273ffffffffffffffffffffffffffffffffffffffff909116906370a082319061096f908b90600401614fe3565b60206040518083038186803b15801561098757600080fd5b505afa15801561099b573d6000803e3d6000fd5b505050506040513d601f19601f820116820180604052508101906109bf9190614b89565b6060820152600754604080517f18160ddd000000000000000000000000000000000000000000000000000000008152905173ffffffffffffffffffffffffffffffffffffffff909216916318160ddd91600480820192602092909190829003018186803b158015610a2f57600080fd5b505afa158015610a43573d6000803e3d6000fd5b505050506040513d601f19601f82011682018060405250810190610a679190614b89565b60808201525b60005473ffffffffffffffffffffffffffffffffffffffff1615610bf75760008060009054906101000a900473ffffffffffffffffffffffffffffffffffffffff1673ffffffffffffffffffffffffffffffffffffffff1663081e3eda6040518163ffffffff1660e01b815260040160206040518083038186803b158015610af457600080fd5b505afa158015610b08573d6000803e3d6000fd5b505050506040513d601f19601f82011682018060405250810190610b2c9190614b89565b90506000805b82811015610bee576000546040517f86f227f500000000000000000000000000000000000000000000000000000000815273ffffffffffffffffffffffffffffffffffffffff909116906386f227f590610b929084908f90600401615790565b60206040518083038186803b158015610baa57600080fd5b505afa158015610bbe573d6000803e3d6000fd5b505050506040513d601f19601f82011682018060405250810190610be29190614b89565b90910190600101610b32565b50610140830152505b42610160820152979650505050505050565b60005473ffffffffffffffffffffffffffffffffffffffff1681565b610c2d61457b565b6060610c3761457b565b60008054906101000a900473ffffffffffffffffffffffffffffffffffffffff1673ffffffffffffffffffffffffffffffffffffffff166317caf6f16040518163ffffffff1660e01b815260040160206040518083038186803b158015610c9d57600080fd5b505afa158015610cb1573d6000803e3d6000fd5b505050506040513d601f19601f82011682018060405250810190610cd59190614b89565b815260008054604080517f081e3eda000000000000000000000000000000000000000000000000000000008152905173ffffffffffffffffffffffffffffffffffffffff9092169163081e3eda91600480820192602092909190829003018186803b158015610d4357600080fd5b505afa158015610d57573d6000803e3d6000fd5b505050506040513d601f19601f82011682018060405250810190610d7b9190614b89565b60208301819052905060608567ffffffffffffffff81118015610d9d57600080fd5b50604051908082528060200260200182016040528015610dd757816020015b610dc4614595565b815260200190600190039081610dbc5790505b50905060005b8681101561125057878782818110610df157fe5b90506020020135828281518110610e0457fe5b60209081029190910101515260008054819073ffffffffffffffffffffffffffffffffffffffff16631526fe278b8b86818110610e3d57fe5b905060200201356040518263ffffffff1660e01b8152600401610e609190615787565b60806040518083038186803b158015610e7857600080fd5b505afa158015610e8c573d6000803e3d6000fd5b505050506040513d601f19601f82011682018060405250810190610eb09190614aba565b505091509150600082905080858581518110610ec857fe5b60200260200101516020019073ffffffffffffffffffffffffffffffffffffffff16908173ffffffffffffffffffffffffffffffffffffffff168152505081858581518110610f1357fe5b60200260200101516040018181525050610f428173ffffffffffffffffffffffffffffffffffffffff16613d9c565b858581518110610f4e57fe5b602002602001015160e00181905250610f7c8173ffffffffffffffffffffffffffffffffffffffff16613eb4565b858581518110610f8857fe5b60200260200101516101000181905250610fb78173ffffffffffffffffffffffffffffffffffffffff16613f36565b858581518110610fc357fe5b6020026020010151610120019060ff16908160ff1681525050610ffb8173ffffffffffffffffffffffffffffffffffffffff1661402a565b85858151811061100757fe5b60200260200101516080019073ffffffffffffffffffffffffffffffffffffffff16908173ffffffffffffffffffffffffffffffffffffffff1681525050600073ffffffffffffffffffffffffffffffffffffffff1685858151811061106957fe5b60200260200101516080015173ffffffffffffffffffffffffffffffffffffffff161461124557600185858151811061109e57fe5b602002602001015160600190151590811515815250508073ffffffffffffffffffffffffffffffffffffffff16630dfe16816040518163ffffffff1660e01b815260040160206040518083038186803b1580156110fa57600080fd5b505afa15801561110e573d6000803e3d6000fd5b505050506040513d601f19601f820116820180604052508101906111329190614bd4565b85858151811061113e57fe5b602002602001015160a0019073ffffffffffffffffffffffffffffffffffffffff16908173ffffffffffffffffffffffffffffffffffffffff16815250508073ffffffffffffffffffffffffffffffffffffffff1663d21220a76040518163ffffffff1660e01b815260040160206040518083038186803b1580156111c257600080fd5b505afa1580156111d6573d6000803e3d6000fd5b505050506040513d601f19601f820116820180604052508101906111fa9190614bd4565b85858151811061120657fe5b602002602001015160c0019073ffffffffffffffffffffffffffffffffffffffff16908173ffffffffffffffffffffffffffffffffffffffff16815250505b505050600101610ddd565b50919350909150505b9250929050565b6060808267ffffffffffffffff8111801561127a57600080fd5b506040519080825280602002602001820160405280156112b457816020015b6112a16145e8565b8152602001906001900390816112995790505b50905060005b8381101561191d576000805473ffffffffffffffffffffffffffffffffffffffff166393f1a40b8787858181106112ed57fe5b90506020020135896040518363ffffffff1660e01b8152600401611312929190615790565b604080518083038186803b15801561132957600080fd5b505afa15801561133d573d6000803e3d6000fd5b505050506040513d601f19601f820116820180604052508101906113619190614e01565b5090508083838151811061137157fe5b602090810291909101810151015260005473ffffffffffffffffffffffffffffffffffffffff166386f227f58787858181106113a957fe5b90506020020135896040518363ffffffff1660e01b81526004016113ce929190615790565b60206040518083038186803b1580156113e657600080fd5b505afa1580156113fa573d6000803e3d6000fd5b505050506040513d601f19601f8201168201806040525081019061141e9190614b89565b83838151811061142a57fe5b602090810291909101015161012001526000805473ffffffffffffffffffffffffffffffffffffffff16631526fe2788888681811061146557fe5b905060200201356040518263ffffffff1660e01b81526004016114889190615787565b60806040518083038186803b1580156114a057600080fd5b505afa1580156114b4573d6000803e3d6000fd5b505050506040513d601f19601f820116820180604052508101906114d89190614aba565b50505090508686848181106114e957fe5b905060200201358484815181106114fc57fe5b60209081029190910101515280600061152a73ffffffffffffffffffffffffffffffffffffffff831661402a565b905073ffffffffffffffffffffffffffffffffffffffff81161561190d576000546040517f70a0823100000000000000000000000000000000000000000000000000000000815273ffffffffffffffffffffffffffffffffffffffff848116926370a08231926115a09290911690600401614fe3565b60206040518083038186803b1580156115b857600080fd5b505afa1580156115cc573d6000803e3d6000fd5b505050506040513d601f19601f820116820180604052508101906115f09190614b89565b8686815181106115fc57fe5b602090810291909101015160409081019190915260005490517fdd62ed3e00000000000000000000000000000000000000000000000000000000815273ffffffffffffffffffffffffffffffffffffffff8085169263dd62ed3e92611667928f921690600401615004565b60206040518083038186803b15801561167f57600080fd5b505afa158015611693573d6000803e3d6000fd5b505050506040513d601f19601f820116820180604052508101906116b79190614b89565b8686815181106116c357fe5b602090810291909101015160a001526040517f70a0823100000000000000000000000000000000000000000000000000000000815273ffffffffffffffffffffffffffffffffffffffff8316906370a0823190611724908d90600401614fe3565b60206040518083038186803b15801561173c57600080fd5b505afa158015611750573d6000803e3d6000fd5b505050506040513d601f19601f820116820180604052508101906117749190614b89565b86868151811061178057fe5b602002602001015160600181815250508173ffffffffffffffffffffffffffffffffffffffff166318160ddd6040518163ffffffff1660e01b815260040160206040518083038186803b1580156117d657600080fd5b505afa1580156117ea573d6000803e3d6000fd5b505050506040513d601f19601f8201168201806040525081019061180e9190614b89565b86868151811061181a57fe5b602002602001015160800181815250506000808373ffffffffffffffffffffffffffffffffffffffff16630902f1ac6040518163ffffffff1660e01b815260040160606040518083038186803b15801561187357600080fd5b505afa158015611887573d6000803e3d6000fd5b505050506040513d601f19601f820116820180604052508101906118ab9190614d74565b5091509150816dffffffffffffffffffffffffffff168888815181106118cd57fe5b602002602001015160c0018181525050806dffffffffffffffffffffffffffff168888815181106118fa57fe5b602002602001015160e001818152505050505b5050600190920191506112ba9050565b50949350505050565b60065473ffffffffffffffffffffffffffffffffffffffff1681565b60055473ffffffffffffffffffffffffffffffffffffffff1681565b6060808267ffffffffffffffff8111801561197857600080fd5b506040519080825280602002602001820160405280156119b257816020015b61199f61463b565b8152602001906001900390816119975790505b50905060005b83811015611af85760008585838181106119ce57fe5b90506020020160208101906119e39190614976565b9050808383815181106119f257fe5b602090810291909101015173ffffffffffffffffffffffffffffffffffffffff9182169052611a22908216613d9c565b838381518110611a2e57fe5b602002602001015160400181905250611a5c8173ffffffffffffffffffffffffffffffffffffffff16613eb4565b838381518110611a6857fe5b602002602001015160600181905250611a968173ffffffffffffffffffffffffffffffffffffffff16613f36565b60ff16838381518110611aa557fe5b60200260200101516020018181525050611ad48173ffffffffffffffffffffffffffffffffffffffff1661411e565b838381518110611ae057fe5b602090810291909101015160800152506001016119b8565b5090505b92915050565b60045473ffffffffffffffffffffffffffffffffffffffff1681565b606081818167ffffffffffffffff81118015611b3957600080fd5b50604051908082528060200260200182016040528015611b7357816020015b611b60614683565b815260200190600190039081611b585790505b50905060005b82811015612781576000868683818110611b8f57fe5b9050602002016020810190611ba49190614976565b90508073ffffffffffffffffffffffffffffffffffffffff1663d8dfeb456040518163ffffffff1660e01b815260040160206040518083038186803b158015611bec57600080fd5b505afa158015611c00573d6000803e3d6000fd5b505050506040513d601f19601f82011682018060405250810190611c249190614bd4565b838381518110611c3057fe5b60200260200101516000019073ffffffffffffffffffffffffffffffffffffffff16908173ffffffffffffffffffffffffffffffffffffffff16815250508073ffffffffffffffffffffffffffffffffffffffff166338d52e0f6040518163ffffffff1660e01b815260040160206040518083038186803b158015611cb457600080fd5b505afa158015611cc8573d6000803e3d6000fd5b505050506040513d601f19601f82011682018060405250810190611cec9190614bd4565b838381518110611cf857fe5b60200260200101516020019073ffffffffffffffffffffffffffffffffffffffff16908173ffffffffffffffffffffffffffffffffffffffff16815250508073ffffffffffffffffffffffffffffffffffffffff16637dc0d1d06040518163ffffffff1660e01b815260040160206040518083038186803b158015611d7c57600080fd5b505afa158015611d90573d6000803e3d6000fd5b505050506040513d601f19601f82011682018060405250810190611db49190614bd4565b838381518110611dc057fe5b60200260200101516040019073ffffffffffffffffffffffffffffffffffffffff16908173ffffffffffffffffffffffffffffffffffffffff16815250508073ffffffffffffffffffffffffffffffffffffffff166374645ff36040518163ffffffff1660e01b815260040160006040518083038186803b158015611e4457600080fd5b505afa158015611e58573d6000803e3d6000fd5b505050506040513d6000823e601f3d9081017fffffffffffffffffffffffffffffffffffffffffffffffffffffffffffffffe0168201604052611e9e9190810190614ba1565b838381518110611eaa57fe5b6020026020010151606001819052508073ffffffffffffffffffffffffffffffffffffffff1663473e3ce76040518163ffffffff1660e01b815260040160206040518083038186803b158015611eff57600080fd5b505afa158015611f13573d6000803e3d6000fd5b505050506040513d601f19601f82011682018060405250810190611f379190614b89565b838381518110611f4357fe5b6020908102919091010151608001526040517f1c9e379b00000000000000000000000000000000000000000000000000000000815273ffffffffffffffffffffffffffffffffffffffff821690631c9e379b90611fa4908b90600401614fe3565b60206040518083038186803b158015611fbc57600080fd5b505afa158015611fd0573d6000803e3d6000fd5b505050506040513d601f19601f82011682018060405250810190611ff49190614b89565b83838151811061200057fe5b602002602001015160a00181815250508073ffffffffffffffffffffffffffffffffffffffff1663f9557ccb6040518163ffffffff1660e01b8152600401604080518083038186803b15801561205557600080fd5b505afa158015612069573d6000803e3d6000fd5b505050506040513d601f19601f8201168201806040525081019061208d9190614d34565b83838151811061209957fe5b602090810291909101015160c001526040517f70a0823100000000000000000000000000000000000000000000000000000000815273ffffffffffffffffffffffffffffffffffffffff8216906370a08231906120fa908b90600401614fe3565b60206040518083038186803b15801561211257600080fd5b505afa158015612126573d6000803e3d6000fd5b505050506040513d601f19601f8201168201806040525081019061214a9190614b89565b83838151811061215657fe5b602002602001015160e00181815250508073ffffffffffffffffffffffffffffffffffffffff16638285ef406040518163ffffffff1660e01b8152600401604080518083038186803b1580156121ab57600080fd5b505afa1580156121bf573d6000803e3d6000fd5b505050506040513d601f19601f820116820180604052508101906121e39190614d34565b8383815181106121ef57fe5b602090810291909101015161010001526040517f48e4163e00000000000000000000000000000000000000000000000000000000815273ffffffffffffffffffffffffffffffffffffffff8216906348e4163e90612251908b90600401614fe3565b60206040518083038186803b15801561226957600080fd5b505afa15801561227d573d6000803e3d6000fd5b505050506040513d601f19601f820116820180604052508101906122a19190614b89565b8383815181106122ad57fe5b60200260200101516101200181815250508073ffffffffffffffffffffffffffffffffffffffff16633ba0b9a96040518163ffffffff1660e01b815260040160206040518083038186803b15801561230457600080fd5b505afa158015612318573d6000803e3d6000fd5b505050506040513d601f19601f8201168201806040525081019061233c9190614b89565b83838151811061234857fe5b60200260200101516101400181815250508073ffffffffffffffffffffffffffffffffffffffff16637dc0d1d06040518163ffffffff1660e01b815260040160206040518083038186803b15801561239f57600080fd5b505afa1580156123b3573d6000803e3d6000fd5b505050506040513d601f19601f820116820180604052508101906123d79190614bd4565b73ffffffffffffffffffffffffffffffffffffffff1663eeb8a8d38273ffffffffffffffffffffffffffffffffffffffff166374645ff36040518163ffffffff1660e01b815260040160006040518083038186803b15801561243857600080fd5b505afa15801561244c573d6000803e3d6000fd5b505050506040513d6000823e601f3d9081017fffffffffffffffffffffffffffffffffffffffffffffffffffffffffffffffe01682016040526124929190810190614ba1565b6040518263ffffffff1660e01b81526004016124ae919061551e565b604080518083038186803b1580156124c557600080fd5b505afa1580156124d9573d6000803e3d6000fd5b505050506040513d601f19601f820116820180604052508101906124fd9190614b58565b905083838151811061250b57fe5b60200260200101516101800181815250508073ffffffffffffffffffffffffffffffffffffffff16637dc0d1d06040518163ffffffff1660e01b815260040160206040518083038186803b15801561256257600080fd5b505afa158015612576573d6000803e3d6000fd5b505050506040513d601f19601f8201168201806040525081019061259a9190614bd4565b73ffffffffffffffffffffffffffffffffffffffff1663d39bbef08273ffffffffffffffffffffffffffffffffffffffff166374645ff36040518163ffffffff1660e01b815260040160006040518083038186803b1580156125fb57600080fd5b505afa15801561260f573d6000803e3d6000fd5b505050506040513d6000823e601f3d9081017fffffffffffffffffffffffffffffffffffffffffffffffffffffffffffffffe01682016040526126559190810190614ba1565b6040518263ffffffff1660e01b8152600401612671919061551e565b60206040518083038186803b15801561268957600080fd5b505afa15801561269d573d6000803e3d6000fd5b505050506040513d601f19601f820116820180604052508101906126c19190614b89565b8383815181106126cd57fe5b60200260200101516101600181815250508073ffffffffffffffffffffffffffffffffffffffff1663b27c0e746040518163ffffffff1660e01b815260040160606040518083038186803b15801561272457600080fd5b505afa158015612738573d6000803e3d6000fd5b505050506040513d601f19601f8201168201806040525081019061275c9190614cdf565b83838151811061276857fe5b60209081029190910101516101a0015250600101611b79565b5095945050505050565b60085473ffffffffffffffffffffffffffffffffffffffff1681565b60015473ffffffffffffffffffffffffffffffffffffffff1681565b60035460009073ffffffffffffffffffffffffffffffffffffffff838116911614156127f85750670de0b6b3a7640000612cf4565b600654600090819073ffffffffffffffffffffffffffffffffffffffff16156128cb576006546003546040517fe6a4390500000000000000000000000000000000000000000000000000000000815273ffffffffffffffffffffffffffffffffffffffff9283169263e6a439059261287892899290911690600401615004565b60206040518083038186803b15801561289057600080fd5b505afa1580156128a4573d6000803e3d6000fd5b505050506040513d601f19601f820116820180604052508101906128c89190614bd4565b91505b60055473ffffffffffffffffffffffffffffffffffffffff1615612999576005546003546040517fe6a4390500000000000000000000000000000000000000000000000000000000815273ffffffffffffffffffffffffffffffffffffffff9283169263e6a439059261294692899290911690600401615004565b60206040518083038186803b15801561295e57600080fd5b505afa158015612972573d6000803e3d6000fd5b505050506040513d601f19601f820116820180604052508101906129969190614bd4565b90505b73ffffffffffffffffffffffffffffffffffffffff82161580156129d1575073ffffffffffffffffffffffffffffffffffffffff8116155b156129e157600092505050612cf4565b6000808073ffffffffffffffffffffffffffffffffffffffff851615612b14576000808673ffffffffffffffffffffffffffffffffffffffff16630902f1ac6040518163ffffffff1660e01b815260040160606040518083038186803b158015612a4a57600080fd5b505afa158015612a5e573d6000803e3d6000fd5b505050506040513d601f19601f82011682018060405250810190612a829190614d74565b5091509150818501945080840193508673ffffffffffffffffffffffffffffffffffffffff16630dfe16816040518163ffffffff1660e01b815260040160206040518083038186803b158015612ad757600080fd5b505afa158015612aeb573d6000803e3d6000fd5b505050506040513d601f19601f82011682018060405250810190612b0f9190614bd4565b925050505b73ffffffffffffffffffffffffffffffffffffffff841615612c5e576000808573ffffffffffffffffffffffffffffffffffffffff16630902f1ac6040518163ffffffff1660e01b815260040160606040518083038186803b158015612b7957600080fd5b505afa158015612b8d573d6000803e3d6000fd5b505050506040513d601f19601f82011682018060405250810190612bb19190614d74565b509581019594850194909250905073ffffffffffffffffffffffffffffffffffffffff8316612c5b578573ffffffffffffffffffffffffffffffffffffffff16630dfe16816040518163ffffffff1660e01b815260040160206040518083038186803b158015612c2057600080fd5b505afa158015612c34573d6000803e3d6000fd5b505050506040513d601f19601f82011682018060405250810190612c589190614bd4565b92505b50505b60035473ffffffffffffffffffffffffffffffffffffffff82811691161415612cc157826dffffffffffffffffffffffffffff16826dffffffffffffffffffffffffffff16670de0b6b3a76400000281612cb457fe5b0495505050505050612cf4565b816dffffffffffffffffffffffffffff16836dffffffffffffffffffffffffffff16670de0b6b3a76400000281612cb457fe5b919050565b6060808267ffffffffffffffff81118015612d1357600080fd5b50604051908082528060200260200182016040528015612d4d57816020015b612d3a614745565b815260200190600190039081612d325790505b50905060005b8381101561191d576000858583818110612d6957fe5b9050602002016020810190612d7e9190614976565b90508073ffffffffffffffffffffffffffffffffffffffff166318160ddd6040518163ffffffff1660e01b815260040160206040518083038186803b158015612dc657600080fd5b505afa158015612dda573d6000803e3d6000fd5b505050506040513d601f19601f82011682018060405250810190612dfe9190614b89565b838381518110612e0a57fe5b6020026020010151602001818152505080838381518110612e2757fe5b602090810291909101015173ffffffffffffffffffffffffffffffffffffffff91821690526040517f70a08231000000000000000000000000000000000000000000000000000000008152908216906370a0823190612e8a908a90600401614fe3565b60206040518083038186803b158015612ea257600080fd5b505afa158015612eb6573d6000803e3d6000fd5b505050506040513d601f19601f82011682018060405250810190612eda9190614b89565b838381518110612ee657fe5b602090810291909101015160409081019190915260085490517fdd62ed3e00000000000000000000000000000000000000000000000000000000815273ffffffffffffffffffffffffffffffffffffffff8084169263dd62ed3e92612f51928c921690600401615004565b60206040518083038186803b158015612f6957600080fd5b505afa158015612f7d573d6000803e3d6000fd5b505050506040513d601f19601f82011682018060405250810190612fa19190614b89565b838381518110612fad57fe5b602090810291909101015160800152612fdc73ffffffffffffffffffffffffffffffffffffffff821688614216565b838381518110612fe857fe5b602090810291909101015160a001526008546040517ff7888aec00000000000000000000000000000000000000000000000000000000815273ffffffffffffffffffffffffffffffffffffffff9091169063f7888aec9061304f9084908b90600401615004565b60206040518083038186803b15801561306757600080fd5b505afa15801561307b573d6000803e3d6000fd5b505050506040513d601f19601f8201168201806040525081019061309f9190614b89565b8383815181106130ab57fe5b6020908102919091010151606001526008546040517f4ffe34db00000000000000000000000000000000000000000000000000000000815273ffffffffffffffffffffffffffffffffffffffff90911690634ffe34db90613110908490600401614fe3565b604080518083038186803b15801561312757600080fd5b505afa15801561313b573d6000803e3d6000fd5b505050506040513d601f19601f8201168201806040525081019061315f9190614dc8565b84848151811061316b57fe5b602002602001015160c00185858151811061318257fe5b60209081029190910101516fffffffffffffffffffffffffffffffff92831660e090910152911690526131b4816127c3565b8383815181106131c057fe5b6020908102919091010151610100015250600101612d53565b60075473ffffffffffffffffffffffffffffffffffffffff1681565b60608083830367ffffffffffffffff8111801561321157600080fd5b5060405190808252806020026020018201604052801561324b57816020015b6132386147cb565b8152602001906001900390816132305790505b509050835b8381101561191d576040517f1e3dd18b00000000000000000000000000000000000000000000000000000000815260009073ffffffffffffffffffffffffffffffffffffffff881690631e3dd18b906132ad908590600401615787565b60206040518083038186803b1580156132c557600080fd5b505afa1580156132d9573d6000803e3d6000fd5b505050506040513d601f19601f820116820180604052508101906132fd9190614bd4565b9050600086830390508184828151811061331357fe5b60200260200101516000019073ffffffffffffffffffffffffffffffffffffffff16908173ffffffffffffffffffffffffffffffffffffffff16815250508173ffffffffffffffffffffffffffffffffffffffff16630dfe16816040518163ffffffff1660e01b815260040160206040518083038186803b15801561339757600080fd5b505afa1580156133ab573d6000803e3d6000fd5b505050506040513d601f19601f820116820180604052508101906133cf9190614bd4565b8482815181106133db57fe5b60200260200101516020019073ffffffffffffffffffffffffffffffffffffffff16908173ffffffffffffffffffffffffffffffffffffffff16815250508173ffffffffffffffffffffffffffffffffffffffff1663d21220a76040518163ffffffff1660e01b815260040160206040518083038186803b15801561345f57600080fd5b505afa158015613473573d6000803e3d6000fd5b505050506040513d601f19601f820116820180604052508101906134979190614bd4565b8482815181106134a357fe5b60200260200101516040019073ffffffffffffffffffffffffffffffffffffffff16908173ffffffffffffffffffffffffffffffffffffffff16815250508173ffffffffffffffffffffffffffffffffffffffff166318160ddd6040518163ffffffff1660e01b815260040160206040518083038186803b15801561352757600080fd5b505afa15801561353b573d6000803e3d6000fd5b505050506040513d601f19601f8201168201806040525081019061355f9190614b89565b84828151811061356b57fe5b6020908102919091010151606001525050600101613250565b7f000000000000000000000000000000000000000000000000000000000000000081565b7f000000000000000000000000000000000000000000000000000000000000000073ffffffffffffffffffffffffffffffffffffffff163314613620576040517f08c379a000000000000000000000000000000000000000000000000000000000815260040161361790615531565b60405180910390fd5b600080547fffffffffffffffffffffffff000000000000000000000000000000000000000090811673ffffffffffffffffffffffffffffffffffffffff9b8c1617909155600180548216998b1699909917909855600280548916978a16979097179096556003805488169589169590951790945560048054871693881693909317909255600580548616918716919091179055600680548516918616919091179055600780548416918516919091179055600880549092169216919091179055565b6060808267ffffffffffffffff811180156136fc57600080fd5b5060405190808252806020026020018201604052801561373657816020015b6137236147f2565b81526020019060019003908161371b5790505b50905060005b8381101561191d57600085858381811061375257fe5b90506020020160208101906137679190614976565b90508083838151811061377657fe5b60200260200101516000019073ffffffffffffffffffffffffffffffffffffffff16908173ffffffffffffffffffffffffffffffffffffffff16815250506000808273ffffffffffffffffffffffffffffffffffffffff16630902f1ac6040518163ffffffff1660e01b815260040160606040518083038186803b1580156137fd57600080fd5b505afa158015613811573d6000803e3d6000fd5b505050506040513d601f19601f820116820180604052508101906138359190614d74565b506dffffffffffffffffffffffffffff1691506dffffffffffffffffffffffffffff1691508185858151811061386757fe5b602002602001015160200181815250508085858151811061388457fe5b602002602001015160400181815250508273ffffffffffffffffffffffffffffffffffffffff166370a082318a6040518263ffffffff1660e01b81526004016138cd9190614fe3565b60206040518083038186803b1580156138e557600080fd5b505afa1580156138f9573d6000803e3d6000fd5b505050506040513d601f19601f8201168201806040525081019061391d9190614b89565b85858151811061392957fe5b602002602001015160800181815250508273ffffffffffffffffffffffffffffffffffffffff166318160ddd6040518163ffffffff1660e01b815260040160206040518083038186803b15801561397f57600080fd5b505afa158015613993573d6000803e3d6000fd5b505050506040513d601f19601f820116820180604052508101906139b79190614b89565b8585815181106139c357fe5b60209081029190910101516060015250505060010161373c565b6060808267ffffffffffffffff811180156139f757600080fd5b50604051908082528060200260200182016040528015613a3157816020015b613a1e61457b565b815260200190600190039081613a165790505b50905060005b8381101561191d57848482818110613a4b57fe5b90506020020135828281518110613a5e57fe5b60209081029190910101515260005473ffffffffffffffffffffffffffffffffffffffff166393f1a40b868684818110613a9457fe5b90506020020135886040518363ffffffff1660e01b8152600401613ab9929190615790565b604080518083038186803b158015613ad057600080fd5b505afa158015613ae4573d6000803e3d6000fd5b505050506040513d601f19601f82011682018060405250810190613b089190614e01565b50828281518110613b1557fe5b6020908102919091018101510152600101613a37565b60035473ffffffffffffffffffffffffffffffffffffffff1681565b6060808267ffffffffffffffff81118015613b6157600080fd5b50604051908082528060200260200182016040528015613b9b57816020015b613b88614837565b815260200190600190039081613b805790505b5090508260005b81811015613d75576000868683818110613bb857fe5b9050602002016020810190613bcd9190614976565b905080848381518110613bdc57fe5b602090810291909101015173ffffffffffffffffffffffffffffffffffffffff91821690526040517f70a08231000000000000000000000000000000000000000000000000000000008152908216906370a0823190613c3f908b90600401614fe3565b60206040518083038186803b158015613c5757600080fd5b505afa158015613c6b573d6000803e3d6000fd5b505050506040513d601f19601f82011682018060405250810190613c8f9190614b89565b848381518110613c9b57fe5b60209081029190910181015101526008546040517ff7888aec00000000000000000000000000000000000000000000000000000000815273ffffffffffffffffffffffffffffffffffffffff9091169063f7888aec90613d019084908c90600401615004565b60206040518083038186803b158015613d1957600080fd5b505afa158015613d2d573d6000803e3d6000fd5b505050506040513d601f19601f82011682018060405250810190613d519190614b89565b848381518110613d5d57fe5b60209081029190910101516040015250600101613ba2565b509095945050505050565b60025473ffffffffffffffffffffffffffffffffffffffff1681565b60408051600481526024810182526020810180517bffffffffffffffffffffffffffffffffffffffffffffffffffffffff167f06fdde03000000000000000000000000000000000000000000000000000000001790529051606091600091839173ffffffffffffffffffffffffffffffffffffffff861691613e1e9190614fc7565b600060405180830381855afa9150503d8060008114613e59576040519150601f19603f3d011682016040523d82523d6000602084013e613e5e565b606091505b509150915081613ea3576040518060400160405280600381526020017f3f3f3f0000000000000000000000000000000000000000000000000000000000815250613eac565b613eac81614334565b949350505050565b60408051600481526024810182526020810180517bffffffffffffffffffffffffffffffffffffffffffffffffffffffff167f95d89b41000000000000000000000000000000000000000000000000000000001790529051606091600091839173ffffffffffffffffffffffffffffffffffffffff861691613e1e9190614fc7565b60408051600481526024810182526020810180517bffffffffffffffffffffffffffffffffffffffffffffffffffffffff167f313ce567000000000000000000000000000000000000000000000000000000001790529051600091829160609173ffffffffffffffffffffffffffffffffffffffff861691613fb89190614fc7565b600060405180830381855afa9150503d8060008114613ff3576040519150601f19603f3d011682016040523d82523d6000602084013e613ff8565b606091505b509150915081801561400b575080516020145b614016576012613eac565b80806020019051810190613eac9190614e24565b60408051600481526024810182526020810180517bffffffffffffffffffffffffffffffffffffffffffffffffffffffff167fc45a0155000000000000000000000000000000000000000000000000000000001790529051600091829160609173ffffffffffffffffffffffffffffffffffffffff8616916140ac9190614fc7565b600060405180830381855afa9150503d80600081146140e7576040519150601f19603f3d011682016040523d82523d6000602084013e6140ec565b606091505b50915091508180156140ff575080516020145b61410a576000613eac565b80806020019051810190613eac9190614bd4565b60408051600481526024810182526020810180517bffffffffffffffffffffffffffffffffffffffffffffffffffffffff167f3644e515000000000000000000000000000000000000000000000000000000001790529051600091829160609173ffffffffffffffffffffffffffffffffffffffff861691612710916141a391614fc7565b6000604051808303818686fa925050503d80600081146141df576040519150601f19603f3d011682016040523d82523d6000602084013e6141e4565b606091505b50915091508180156141f7575080516020145b614202576000613eac565b80806020019051810190613eac9190614b89565b60008060608473ffffffffffffffffffffffffffffffffffffffff16611388637ecebe008660405160240161424b9190614fe3565b6040516020818303038152906040529060e01b6020820180517bffffffffffffffffffffffffffffffffffffffffffffffffffffffff83818316178352505050506040516142999190614fc7565b6000604051808303818686fa925050503d80600081146142d5576040519150601f19603f3d011682016040523d82523d6000602084013e6142da565b606091505b50915091508180156142ed575080516020145b614317577fffffffffffffffffffffffffffffffffffffffffffffffffffffffffffffffff61432b565b8080602001905181019061432b9190614b89565b95945050505050565b6060604082511061435a57818060200190518101906143539190614ba1565b9050612cf4565b8151602014156144c25760005b60208160ff161080156143ae5750828160ff168151811061438457fe5b01602001517fff000000000000000000000000000000000000000000000000000000000000001615155b156143bb57600101614367565b60608160ff1667ffffffffffffffff811180156143d757600080fd5b506040519080825280601f01601f191660200182016040528015614402576020820181803683370190505b509050600091505b60208260ff161080156144515750838260ff168151811061442757fe5b01602001517fff000000000000000000000000000000000000000000000000000000000000001615155b156144b957838260ff168151811061446557fe5b602001015160f81c60f81b818360ff168151811061447f57fe5b60200101907effffffffffffffffffffffffffffffffffffffffffffffffffffffffffffff1916908160001a90535060019091019061440a565b9150612cf49050565b5060408051808201909152600381527f3f3f3f00000000000000000000000000000000000000000000000000000000006020820152612cf4565b604051806101a00160405280600081526020016000815260200160008152602001600081526020016000815260200160008152602001606081526020016000815260200160008152602001600081526020016000815260200160008152602001606081525090565b604080518082019091526000808252602082015290565b604051806040016040528060008152602001600081525090565b604080516101408101825260008082526020820181905291810182905260608082018390526080820183905260a0820183905260c0820183905260e0820181905261010082015261012081019190915290565b604051806101400160405280600081526020016000815260200160008152602001600081526020016000815260200160008152602001600081526020016000815260200160008152602001600081525090565b6040518060a00160405280600073ffffffffffffffffffffffffffffffffffffffff168152602001600081526020016060815260200160608152602001600080191681525090565b604051806101c00160405280600073ffffffffffffffffffffffffffffffffffffffff168152602001600073ffffffffffffffffffffffffffffffffffffffff168152602001600073ffffffffffffffffffffffffffffffffffffffff168152602001606081526020016000815260200160008152602001614703614564565b815260200160008152602001614717614564565b81526020016000815260200160008152602001600081526020016000815260200161474061486e565b905290565b604051806101200160405280600073ffffffffffffffffffffffffffffffffffffffff168152602001600081526020016000815260200160008152602001600081526020016000815260200160006fffffffffffffffffffffffffffffffff16815260200160006fffffffffffffffffffffffffffffffff168152602001600081525090565b60408051608081018252600080825260208201819052918101829052606081019190915290565b6040518060a00160405280600073ffffffffffffffffffffffffffffffffffffffff168152602001600081526020016000815260200160008152602001600081525090565b6040518060600160405280600073ffffffffffffffffffffffffffffffffffffffff16815260200160008152602001600081525090565b604080516060810182526000808252602082018190529181019190915290565b60008083601f84011261489f578182fd5b50813567ffffffffffffffff8111156148b6578182fd5b602083019150836020808302850101111561125957600080fd5b600082601f8301126148e0578081fd5b815167ffffffffffffffff8111156148f6578182fd5b61492760207fffffffffffffffffffffffffffffffffffffffffffffffffffffffffffffffe0601f840116016157b4565b915080825283602082850101111561493e57600080fd5b61494f8160208401602086016157db565b5092915050565b80516fffffffffffffffffffffffffffffffff81168114611afc57600080fd5b600060208284031215614987578081fd5b81356149928161580b565b9392505050565b6000806000604084860312156149ad578182fd5b83356149b88161580b565b9250602084013567ffffffffffffffff8111156149d3578283fd5b6149df8682870161488e565b9497909650939450505050565b600080600060408486031215614a00578081fd5b8335614a0b8161580b565b9250602084013567ffffffffffffffff8111156149d3578182fd5b60008060008060008060808789031215614a3e578384fd5b8635614a498161580b565b9550602087013567ffffffffffffffff80821115614a65578586fd5b614a718a838b0161488e565b909750955060408901359150614a868261580b565b90935060608801359080821115614a9b578384fd5b50614aa889828a0161488e565b979a9699509497509295939492505050565b60008060008060808587031215614acf578182fd5b8451614ada8161580b565b60208601516040870151606090970151919890975090945092505050565b60008060208385031215614b0a578182fd5b823567ffffffffffffffff811115614b20578283fd5b614b2c8582860161488e565b90969095509350505050565b600060208284031215614b49578081fd5b81518015158114614992578182fd5b60008060408385031215614b6a578182fd5b82518015158114614b79578283fd5b6020939093015192949293505050565b600060208284031215614b9a578081fd5b5051919050565b600060208284031215614bb2578081fd5b815167ffffffffffffffff811115614bc8578182fd5b613eac848285016148d0565b600060208284031215614be5578081fd5b81516149928161580b565b600080600060608486031215614c04578081fd5b8335614c0f8161580b565b95602085013595506040909401359392505050565b60008060008060008060008060006101208a8c031215614c42578687fd5b8935614c4d8161580b565b985060208a0135614c5d8161580b565b975060408a0135614c6d8161580b565b965060608a0135614c7d8161580b565b955060808a0135614c8d8161580b565b945060a08a0135614c9d8161580b565b935060c08a0135614cad8161580b565b925060e08a0135614cbd8161580b565b91506101008a0135614cce8161580b565b809150509295985092959850929598565b600060608284031215614cf0578081fd5b614cfa60606157b4565b8251614d058161586a565b81526020830151614d158161586a565b60208201526040830151614d288161584c565b60408201529392505050565b600060408284031215614d45578081fd5b614d4f60406157b4565b614d598484614956565b8152614d688460208501614956565b60208201529392505050565b600080600060608486031215614d88578081fd5b8351614d9381615830565b6020850151909350614da481615830565b604085015190925063ffffffff81168114614dbd578182fd5b809150509250925092565b60008060408385031215614dda578182fd5b8251614de58161584c565b6020840151909250614df68161584c565b809150509250929050565b60008060408385031215614e13578182fd5b505080516020909101519092909150565b600060208284031215614e35578081fd5b815160ff81168114614992578182fd5b6000815180845260208085019450808401835b83811015614e76578151151587529582019590820190600101614e58565b509495945050505050565b6000815180845260208085019450808401835b83811015614e76578151805173ffffffffffffffffffffffffffffffffffffffff1688528301518388015260409096019590820190600101614e94565b15159052565b60008151808452614eef8160208601602086016157db565b601f017fffffffffffffffffffffffffffffffffffffffffffffffffffffffffffffffe0169290920160200192915050565b73ffffffffffffffffffffffffffffffffffffffff169052565b67ffffffffffffffff808251168352806020830151166020840152506fffffffffffffffffffffffffffffffff60408201511660408301525050565b80518252602090810151910152565b80516fffffffffffffffffffffffffffffffff908116835260209182015116910152565b6fffffffffffffffffffffffffffffffff169052565b60ff169052565b60008251614fd98184602087016157db565b9190910192915050565b73ffffffffffffffffffffffffffffffffffffffff91909116815260200190565b73ffffffffffffffffffffffffffffffffffffffff92831681529116602082015260400190565b602080825282518282018190526000919060409081850190868401855b828110156150d157815161505d858251614f21565b80870151858801528581015186860152606080820151908601526080808201519086015260a0808201519086015260c08082015161509d82880182614faa565b505060e0808201516150b182880182614faa565b505061010090810151908501526101209093019290850190600101615048565b5091979650505050505050565b602080825282518282018190526000919060409081850190868401855b828110156150d1578151805173ffffffffffffffffffffffffffffffffffffffff168552868101518786015285015185850152606090930192908501906001016150fb565b60208082528251828201819052600091906040908185019080840286018301878501865b83811015615287577fffffffffffffffffffffffffffffffffffffffffffffffffffffffffffffffc089840301855281516102406151a3858351614f21565b888201516151b38a870182614f21565b50878201516151c489870182614f21565b5060608083015182828801526151dc83880182614ed7565b92505050608080830151818701525060a080830151818701525060c08083015161520882880182614f86565b505060e08201516101008681019190915282015161012061522b81880183614f86565b8301516101608781019190915261014084015161018080890191909152908401516101a080890191909152908401516101c08801529092015191506152746101e0860183614f3b565b9588019593505090860190600101615164565b509098975050505050505050565b602080825282518282018190526000919060409081850190868401855b828110156150d1578151805173ffffffffffffffffffffffffffffffffffffffff90811686528782015181168887015286820151168686015260609081015190850152608090930192908501906001016152b2565b602080825282518282018190526000919060409081850190868401855b828110156150d1578151805173ffffffffffffffffffffffffffffffffffffffff16855286810151878601528581015186860152606080820151908601526080908101519085015260a09093019290850190600101615324565b602080825282518282018190526000919060409081850190868401855b828110156150d1576153ae848351614f77565b928401929085019060010161539b565b60208082528251828201819052600091906040908185019080840286018301878501865b83811015615287577fffffffffffffffffffffffffffffffffffffffffffffffffffffffffffffffc0898403018552815160a073ffffffffffffffffffffffffffffffffffffffff8251168552888201518986015287820151818987015261544c82870182614ed7565b915050606080830151868303828801526154668382614ed7565b60809485015197909401969096525050948701949250908601906001016153e2565b602080825282518282018190526000919060409081850190868401855b828110156150d15781518051855286810151878601528581015186860152606080820151908601526080808201519086015260a0808201519086015260c0808201519086015260e080820151908601526101008082015190860152610120908101519085015261014090930192908501906001016154a5565b6000602082526149926020830184614ed7565b6020808252818101527f4f776e61626c653a2063616c6c6572206973206e6f7420746865206f776e6572604082015260600190565b600060608083016155778487614f77565b604084810183905285519182905260809182860190602080820288018501818a01885b84811015615695577fffffffffffffffffffffffffffffffffffffffffffffffffffffffffffffff808b8403018652815161014081518552858201516155e287870182614f21565b5088820151898601528a8201516155fb8c870182614ed1565b508982015161560c8b870182614f21565b5060a08083015161561f82880182614f21565b505060c08083015161563382880182614f21565b505060e080830151828288015261564c83880182614ed7565b9250505061010080830151868303828801526156688382614ed7565b9250505061012080830151925061568181870184614fc0565b50968501969350509083019060010161559a565b50909b9a5050505050505050505050565b60006020825282516020830152602083015160408301526040830151606083015260608301516080830152608083015160a083015260a083015160c083015260c08301516101a08060e08501526157016101c0850183614e81565b60e086015161010086810191909152860151610120808701919091528601516101408087019190915286015161016080870191909152860151610180808701919091528601518582037fffffffffffffffffffffffffffffffffffffffffffffffffffffffffffffffe0018387015290925061577d8382614e45565b9695505050505050565b90815260200190565b91825273ffffffffffffffffffffffffffffffffffffffff16602082015260400190565b60405181810167ffffffffffffffff811182821017156157d357600080fd5b604052919050565b60005b838110156157f65781810151838201526020016157de565b83811115615805576000848401525b50505050565b73ffffffffffffffffffffffffffffffffffffffff8116811461582d57600080fd5b50565b6dffffffffffffffffffffffffffff8116811461582d57600080fd5b6fffffffffffffffffffffffffffffffff8116811461582d57600080fd5b67ffffffffffffffff8116811461582d57600080fdfea2646970667358221220178f25239d0c0279fd129d282eca80c43c3739f918c63735d880cb941beb055764736f6c634300060c0033"
}